{
  "_format": "hh-sol-artifact-1",
  "contractName": "FileSharing",
  "sourceName": "contracts/FileSharing.sol",
  "abi": [
    {
      "inputs": [],
      "stateMutability": "nonpayable",
      "type": "constructor"
    },
    {
      "anonymous": false,
      "inputs": [
        {
          "indexed": true,
          "internalType": "bytes32",
          "name": "fileId",
          "type": "bytes32"
        },
        {
          "indexed": true,
          "internalType": "address",
          "name": "user",
          "type": "address"
        }
      ],
      "name": "AccessGranted",
      "type": "event"
    },
    {
      "anonymous": false,
      "inputs": [
        {
          "indexed": true,
          "internalType": "bytes32",
          "name": "fileId",
          "type": "bytes32"
        },
        {
          "indexed": true,
          "internalType": "address",
          "name": "user",
          "type": "address"
        }
      ],
      "name": "AccessRevoked",
      "type": "event"
    },
    {
      "anonymous": false,
      "inputs": [
        {
          "indexed": true,
          "internalType": "bytes32",
          "name": "fileId",
          "type": "bytes32"
        },
        {
          "indexed": true,
          "internalType": "address",
          "name": "user",
          "type": "address"
        }
      ],
      "name": "FileDownloaded",
      "type": "event"
    },
    {
      "anonymous": false,
      "inputs": [
        {
          "indexed": true,
          "internalType": "bytes32",
          "name": "fileId",
          "type": "bytes32"
        },
        {
          "indexed": true,
          "internalType": "address",
          "name": "uploader",
          "type": "address"
        },
        {
          "indexed": false,
          "internalType": "string",
          "name": "fileName",
          "type": "string"
        }
      ],
      "name": "FileUploaded",
      "type": "event"
    },
    {
      "inputs": [
        {
          "internalType": "address",
          "name": "user",
          "type": "address"
        },
        {
          "internalType": "bytes32",
          "name": "fileId",
          "type": "bytes32"
        }
      ],
      "name": "canAccess",
      "outputs": [
        {
          "internalType": "bool",
          "name": "",
          "type": "bool"
        }
      ],
      "stateMutability": "view",
      "type": "function"
    },
    {
      "inputs": [
        {
          "internalType": "bytes32",
          "name": "fileId",
          "type": "bytes32"
        }
      ],
      "name": "downloadFile",
      "outputs": [
        {
          "internalType": "string",
          "name": "",
          "type": "string"
        }
      ],
      "stateMutability": "nonpayable",
      "type": "function"
    },
    {
      "inputs": [],
      "name": "getUploadedFiles",
      "outputs": [
        {
          "internalType": "bytes32[]",
          "name": "",
          "type": "bytes32[]"
        }
      ],
      "stateMutability": "view",
      "type": "function"
    },
    {
      "inputs": [
        {
          "internalType": "address",
          "name": "user",
          "type": "address"
        },
        {
          "internalType": "bytes32",
          "name": "fileId",
          "type": "bytes32"
        }
      ],
      "name": "grantAccess",
      "outputs": [],
      "stateMutability": "nonpayable",
      "type": "function"
    },
    {
      "inputs": [
        {
          "internalType": "bytes32",
          "name": "fileId",
          "type": "bytes32"
        }
      ],
      "name": "isFileUploaded",
      "outputs": [
        {
          "internalType": "bool",
          "name": "",
          "type": "bool"
        }
      ],
      "stateMutability": "view",
      "type": "function"
    },
    {
      "inputs": [],
      "name": "owner",
      "outputs": [
        {
          "internalType": "address",
          "name": "",
          "type": "address"
        }
      ],
      "stateMutability": "view",
      "type": "function"
    },
    {
      "inputs": [
        {
          "internalType": "address",
          "name": "user",
          "type": "address"
        },
        {
          "internalType": "bytes32",
          "name": "fileId",
          "type": "bytes32"
        }
      ],
      "name": "revokeAccess",
      "outputs": [],
      "stateMutability": "nonpayable",
      "type": "function"
    },
    {
      "inputs": [
        {
          "internalType": "address",
          "name": "newOwner",
          "type": "address"
        }
      ],
      "name": "transferOwnership",
      "outputs": [],
      "stateMutability": "nonpayable",
      "type": "function"
    },
    {
      "inputs": [
        {
          "internalType": "bytes32",
          "name": "fileId",
          "type": "bytes32"
        },
        {
          "internalType": "string",
          "name": "fileHash",
          "type": "string"
        },
        {
          "internalType": "string",
          "name": "fileName",
          "type": "string"
        }
      ],
      "name": "uploadFile",
      "outputs": [],
      "stateMutability": "nonpayable",
      "type": "function"
    }
  ],
  "bytecode": "0x608060405234801561001057600080fd5b5033600460006101000a81548173ffffffffffffffffffffffffffffffffffffffff021916908373ffffffffffffffffffffffffffffffffffffffff1602179055506111fd806100616000396000f3fe608060405234801561001057600080fd5b50600436106100935760003560e01c80638da5cb5b116100665780638da5cb5b14610130578063a30e992c1461014e578063e31c1a261461017e578063ed854c3d1461019a578063f2fde38b146101b857610093565b80630f95416d1461009857806345678279146100b45780634f3cefa9146100e45780637312516314610114575b600080fd5b6100b260048036038101906100ad9190610b06565b6101d4565b005b6100ce60048036038101906100c99190610b42565b610327565b6040516100db9190610edb565b60405180910390f35b6100fe60048036038101906100f99190610b06565b610352565b60405161010b9190610edb565b60405180910390f35b61012e60048036038101906101299190610b06565b6103b9565b005b61013861050c565b6040516101459190610e9e565b60405180910390f35b61016860048036038101906101639190610b42565b610532565b6040516101759190610ef6565b60405180910390f35b61019860048036038101906101939190610b6b565b610664565b005b6101a261080c565b6040516101af9190610eb9565b60405180910390f35b6101d260048036038101906101cd9190610add565b610864565b005b803373ffffffffffffffffffffffffffffffffffffffff166002600083815260200190815260200160002060009054906101000a900473ffffffffffffffffffffffffffffffffffffffff1673ffffffffffffffffffffffffffffffffffffffff1614610276576040517f08c379a000000000000000000000000000000000000000000000000000000000815260040161026d90610f18565b60405180910390fd5b60016000808573ffffffffffffffffffffffffffffffffffffffff1673ffffffffffffffffffffffffffffffffffffffff168152602001908152602001600020600084815260200190815260200160002060006101000a81548160ff0219169083151502179055508273ffffffffffffffffffffffffffffffffffffffff16827ff20afd7b032307b01752ee91e3f6a4b83a5b4ab631f9ab279322fd45634382c060405160405180910390a3505050565b600080600160008481526020019081526020016000208054610348906110f8565b9050119050919050565b60008060008473ffffffffffffffffffffffffffffffffffffffff1673ffffffffffffffffffffffffffffffffffffffff168152602001908152602001600020600083815260200190815260200160002060009054906101000a900460ff16905092915050565b803373ffffffffffffffffffffffffffffffffffffffff166002600083815260200190815260200160002060009054906101000a900473ffffffffffffffffffffffffffffffffffffffff1673ffffffffffffffffffffffffffffffffffffffff161461045b576040517f08c379a000000000000000000000000000000000000000000000000000000000815260040161045290610f18565b60405180910390fd5b60008060008573ffffffffffffffffffffffffffffffffffffffff1673ffffffffffffffffffffffffffffffffffffffff168152602001908152602001600020600084815260200190815260200160002060006101000a81548160ff0219169083151502179055508273ffffffffffffffffffffffffffffffffffffffff16827fe7906b77ea165c70ad8268ce5b59b778a198edf9c1ae4118378eefdc76fce5f460405160405180910390a3505050565b600460009054906101000a900473ffffffffffffffffffffffffffffffffffffffff1681565b606061053e3383610352565b61057d576040517f08c379a000000000000000000000000000000000000000000000000000000000815260040161057490610f78565b60405180910390fd5b3373ffffffffffffffffffffffffffffffffffffffff16827fc81f127da056029871fc73195bd6cbd818bf8423c189208e42e17796219afe5460405160405180910390a36001600083815260200190815260200160002080546105df906110f8565b80601f016020809104026020016040519081016040528092919081815260200182805461060b906110f8565b80156106585780601f1061062d57610100808354040283529160200191610658565b820191906000526020600020905b81548152906001019060200180831161063b57829003601f168201915b50505050509050919050565b61066d83610327565b156106ad576040517f08c379a00000000000000000000000000000000000000000000000000000000081526004016106a490610f58565b60405180910390fd5b816001600085815260200190815260200160002090805190602001906106d49291906109a8565b50336002600085815260200190815260200160002060006101000a81548173ffffffffffffffffffffffffffffffffffffffff021916908373ffffffffffffffffffffffffffffffffffffffff16021790555060016000803373ffffffffffffffffffffffffffffffffffffffff1673ffffffffffffffffffffffffffffffffffffffff168152602001908152602001600020600085815260200190815260200160002060006101000a81548160ff02191690831515021790555060038390806001815401808255809150506001900390600052602060002001600090919091909150553373ffffffffffffffffffffffffffffffffffffffff16837f7237b089d1a252ec5312d4f64b1378a99d12760dfcaa22429ba0bd7c31d3fc88836040516107ff9190610ef6565b60405180910390a3505050565b6060600380548060200260200160405190810160405280929190818152602001828054801561085a57602002820191906000526020600020905b815481526020019060010190808311610846575b5050505050905090565b600460009054906101000a900473ffffffffffffffffffffffffffffffffffffffff1673ffffffffffffffffffffffffffffffffffffffff163373ffffffffffffffffffffffffffffffffffffffff16146108f4576040517f08c379a00000000000000000000000000000000000000000000000000000000081526004016108eb90610f38565b60405180910390fd5b600073ffffffffffffffffffffffffffffffffffffffff168173ffffffffffffffffffffffffffffffffffffffff161415610964576040517f08c379a000000000000000000000000000000000000000000000000000000000815260040161095b90610f98565b60405180910390fd5b80600460006101000a81548173ffffffffffffffffffffffffffffffffffffffff021916908373ffffffffffffffffffffffffffffffffffffffff16021790555050565b8280546109b4906110f8565b90600052602060002090601f0160209004810192826109d65760008555610a1d565b82601f106109ef57805160ff1916838001178555610a1d565b82800160010185558215610a1d579182015b82811115610a1c578251825591602001919060010190610a01565b5b509050610a2a9190610a2e565b5090565b5b80821115610a47576000816000905550600101610a2f565b5090565b6000610a5e610a5984610fe9565b610fb8565b905082815260208101848484011115610a7657600080fd5b610a818482856110b6565b509392505050565b600081359050610a9881611199565b92915050565b600081359050610aad816111b0565b92915050565b600082601f830112610ac457600080fd5b8135610ad4848260208601610a4b565b91505092915050565b600060208284031215610aef57600080fd5b6000610afd84828501610a89565b91505092915050565b60008060408385031215610b1957600080fd5b6000610b2785828601610a89565b9250506020610b3885828601610a9e565b9150509250929050565b600060208284031215610b5457600080fd5b6000610b6284828501610a9e565b91505092915050565b600080600060608486031215610b8057600080fd5b6000610b8e86828701610a9e565b935050602084013567ffffffffffffffff811115610bab57600080fd5b610bb786828701610ab3565b925050604084013567ffffffffffffffff811115610bd457600080fd5b610be086828701610ab3565b9150509250925092565b6000610bf68383610c7e565b60208301905092915050565b610c0b8161106e565b82525050565b6000610c1c82611029565b610c26818561104c565b9350610c3183611019565b8060005b83811015610c62578151610c498882610bea565b9750610c548361103f565b925050600181019050610c35565b5085935050505092915050565b610c7881611080565b82525050565b610c878161108c565b82525050565b6000610c9882611034565b610ca2818561105d565b9350610cb28185602086016110c5565b610cbb81611188565b840191505092915050565b6000610cd3602b8361105d565b91507f4f6e6c79207468652066696c65206f776e65722063616e20706572666f726d2060008301527f7468697320616374696f6e0000000000000000000000000000000000000000006020830152604082019050919050565b6000610d39602f8361105d565b91507f4f6e6c792074686520636f6e7472616374206f776e65722063616e207065726660008301527f6f726d207468697320616374696f6e00000000000000000000000000000000006020830152604082019050919050565b6000610d9f60268361105d565b91507f46696c652077697468207468652073616d6520494420616c726561647920757060008301527f6c6f6164656400000000000000000000000000000000000000000000000000006020830152604082019050919050565b6000610e05600d8361105d565b91507f4163636573732064656e696564000000000000000000000000000000000000006000830152602082019050919050565b6000610e4560248361105d565b91507f4e6577206f776e65722063616e6e6f7420626520746865207a65726f2061646460008301527f72657373000000000000000000000000000000000000000000000000000000006020830152604082019050919050565b6000602082019050610eb36000830184610c02565b92915050565b60006020820190508181036000830152610ed38184610c11565b905092915050565b6000602082019050610ef06000830184610c6f565b92915050565b60006020820190508181036000830152610f108184610c8d565b905092915050565b60006020820190508181036000830152610f3181610cc6565b9050919050565b60006020820190508181036000830152610f5181610d2c565b9050919050565b60006020820190508181036000830152610f7181610d92565b9050919050565b60006020820190508181036000830152610f9181610df8565b9050919050565b60006020820190508181036000830152610fb181610e38565b9050919050565b6000604051905081810181811067ffffffffffffffff82111715610fdf57610fde611159565b5b8060405250919050565b600067ffffffffffffffff82111561100457611003611159565b5b601f19601f8301169050602081019050919050565b6000819050602082019050919050565b600081519050919050565b600081519050919050565b6000602082019050919050565b600082825260208201905092915050565b600082825260208201905092915050565b600061107982611096565b9050919050565b60008115159050919050565b6000819050919050565b600073ffffffffffffffffffffffffffffffffffffffff82169050919050565b82818337600083830152505050565b60005b838110156110e35780820151818401526020810190506110c8565b838111156110f2576000848401525b50505050565b6000600282049050600182168061111057607f821691505b602082108114156111245761112361112a565b5b50919050565b7f4e487b7100000000000000000000000000000000000000000000000000000000600052602260045260246000fd5b7f4e487b7100000000000000000000000000000000000000000000000000000000600052604160045260246000fd5b6000601f19601f8301169050919050565b6111a28161106e565b81146111ad57600080fd5b50565b6111b98161108c565b81146111c457600080fd5b5056fea26469706673582212206caa99cd139a9af8f651ee9125b36ccbca61dabd170f8e13ba75eca42d5aba2564736f6c63430008000033",
  "linkReferences": {},
  "deployedLinkReferences": {}
}